{
  "contractName": "NFTMarket",
  "abi": [
    {
      "inputs": [
        {
          "internalType": "address",
          "name": "_nftContract",
          "type": "address"
        },
        {
          "internalType": "address",
          "name": "_treasury",
          "type": "address"
        }
      ],
      "stateMutability": "nonpayable",
      "type": "constructor"
    },
    {
      "anonymous": false,
      "inputs": [
        {
          "indexed": true,
          "internalType": "uint256",
          "name": "itemId",
          "type": "uint256"
        },
        {
          "indexed": true,
          "internalType": "address",
          "name": "nftContract",
          "type": "address"
        },
        {
          "indexed": true,
          "internalType": "uint256",
          "name": "tokenId",
          "type": "uint256"
        },
        {
          "indexed": false,
          "internalType": "address",
          "name": "buyer",
          "type": "address"
        },
        {
          "indexed": false,
          "internalType": "uint256",
          "name": "price",
          "type": "uint256"
        },
        {
          "indexed": false,
          "internalType": "bool",
          "name": "sold",
          "type": "bool"
        },
        {
          "indexed": false,
          "internalType": "bool",
          "name": "isActive",
          "type": "bool"
        }
      ],
      "name": "ItemBought",
      "type": "event"
    },
    {
      "anonymous": false,
      "inputs": [
        {
          "indexed": true,
          "internalType": "address",
          "name": "previousOwner",
          "type": "address"
        },
        {
          "indexed": true,
          "internalType": "address",
          "name": "newOwner",
          "type": "address"
        }
      ],
      "name": "OwnershipTransferred",
      "type": "event"
    },
    {
      "anonymous": false,
      "inputs": [
        {
          "indexed": true,
          "internalType": "uint256",
          "name": "itemId",
          "type": "uint256"
        },
        {
          "indexed": true,
          "internalType": "address",
          "name": "nftContract",
          "type": "address"
        },
        {
          "indexed": true,
          "internalType": "uint256",
          "name": "tokenId",
          "type": "uint256"
        },
        {
          "indexed": false,
          "internalType": "address",
          "name": "seller",
          "type": "address"
        },
        {
          "indexed": false,
          "internalType": "address",
          "name": "owner",
          "type": "address"
        },
        {
          "indexed": false,
          "internalType": "address",
          "name": "minter",
          "type": "address"
        },
        {
          "indexed": false,
          "internalType": "uint256",
          "name": "royalty",
          "type": "uint256"
        },
        {
          "indexed": false,
          "internalType": "uint256",
          "name": "price",
          "type": "uint256"
        },
        {
          "indexed": false,
          "internalType": "bool",
          "name": "sold",
          "type": "bool"
        },
        {
          "indexed": false,
          "internalType": "bool",
          "name": "isActive",
          "type": "bool"
        }
      ],
      "name": "saleCreated",
      "type": "event"
    },
    {
      "stateMutability": "payable",
      "type": "fallback",
      "payable": true
    },
    {
      "inputs": [
        {
          "internalType": "uint256",
          "name": "",
          "type": "uint256"
        }
      ],
      "name": "idToMarketItem",
      "outputs": [
        {
          "internalType": "uint256",
          "name": "itemId",
          "type": "uint256"
        },
        {
          "internalType": "address",
          "name": "nftContract",
          "type": "address"
        },
        {
          "internalType": "uint256",
          "name": "tokenId",
          "type": "uint256"
        },
        {
          "internalType": "address payable",
          "name": "seller",
          "type": "address"
        },
        {
          "internalType": "address payable",
          "name": "owner",
          "type": "address"
        },
        {
          "internalType": "address payable",
          "name": "minter",
          "type": "address"
        },
        {
          "internalType": "uint256",
          "name": "royalty",
          "type": "uint256"
        },
        {
          "internalType": "uint256",
          "name": "price",
          "type": "uint256"
        },
        {
          "internalType": "bool",
          "name": "sold",
          "type": "bool"
        },
        {
          "internalType": "bool",
          "name": "isActive",
          "type": "bool"
        }
      ],
      "stateMutability": "view",
      "type": "function",
      "constant": true
    },
    {
      "inputs": [],
      "name": "owner",
      "outputs": [
        {
          "internalType": "address",
          "name": "",
          "type": "address"
        }
      ],
      "stateMutability": "view",
      "type": "function",
      "constant": true
    },
    {
      "inputs": [],
      "name": "pangeaNft",
      "outputs": [
        {
          "internalType": "contract MintNft",
          "name": "",
          "type": "address"
        }
      ],
      "stateMutability": "view",
      "type": "function",
      "constant": true
    },
    {
      "inputs": [],
      "name": "renounceOwnership",
      "outputs": [],
      "stateMutability": "nonpayable",
      "type": "function"
    },
    {
      "inputs": [
        {
          "internalType": "address",
          "name": "newOwner",
          "type": "address"
        }
      ],
      "name": "transferOwnership",
      "outputs": [],
      "stateMutability": "nonpayable",
      "type": "function"
    },
    {
      "inputs": [],
      "name": "treasuryRoyalty",
      "outputs": [
        {
          "internalType": "uint256",
          "name": "",
          "type": "uint256"
        }
      ],
      "stateMutability": "view",
      "type": "function",
      "constant": true
    },
    {
      "stateMutability": "payable",
      "type": "receive",
      "payable": true
    },
    {
      "inputs": [
        {
          "internalType": "uint256",
          "name": "itemid",
          "type": "uint256"
        }
      ],
      "name": "getPrice",
      "outputs": [
        {
          "internalType": "uint256",
          "name": "",
          "type": "uint256"
        }
      ],
      "stateMutability": "view",
      "type": "function",
      "constant": true
    },
    {
      "inputs": [
        {
          "internalType": "uint256",
          "name": "royalty",
          "type": "uint256"
        }
      ],
      "name": "setTreasuryRoyalty",
      "outputs": [],
      "stateMutability": "nonpayable",
      "type": "function"
    },
    {
      "inputs": [
        {
          "internalType": "address",
          "name": "_treasury",
          "type": "address"
        }
      ],
      "name": "setTreasury",
      "outputs": [],
      "stateMutability": "nonpayable",
      "type": "function"
    },
    {
      "inputs": [
        {
          "internalType": "address",
          "name": "",
          "type": "address"
        },
        {
          "internalType": "address",
          "name": "",
          "type": "address"
        },
        {
          "internalType": "uint256",
          "name": "",
          "type": "uint256"
        },
        {
          "internalType": "bytes",
          "name": "",
          "type": "bytes"
        }
      ],
      "name": "onERC721Received",
      "outputs": [
        {
          "internalType": "bytes4",
          "name": "",
          "type": "bytes4"
        }
      ],
      "stateMutability": "nonpayable",
      "type": "function"
    },
    {
      "inputs": [
        {
          "internalType": "address",
          "name": "nftContract",
          "type": "address"
        },
        {
          "internalType": "uint256",
          "name": "tokenId",
          "type": "uint256"
        },
        {
          "internalType": "uint256",
          "name": "price",
          "type": "uint256"
        }
      ],
      "name": "createSale",
      "outputs": [],
      "stateMutability": "nonpayable",
      "type": "function"
    },
    {
      "inputs": [
        {
          "internalType": "uint256",
          "name": "itemId",
          "type": "uint256"
        }
      ],
      "name": "buyItem",
      "outputs": [],
      "stateMutability": "payable",
      "type": "function",
      "payable": true
    },
    {
      "inputs": [
        {
          "internalType": "uint256",
          "name": "itemId",
          "type": "uint256"
        }
      ],
      "name": "EndSale",
      "outputs": [],
      "stateMutability": "nonpayable",
      "type": "function"
    },
    {
      "inputs": [
        {
          "internalType": "uint256",
          "name": "item",
          "type": "uint256"
        }
      ],
      "name": "royaltyForItem",
      "outputs": [
        {
          "internalType": "uint256",
          "name": "",
          "type": "uint256"
        }
      ],
      "stateMutability": "view",
      "type": "function",
      "constant": true
    },
    {
      "inputs": [],
      "name": "fetchMarketItems",
      "outputs": [
        {
          "components": [
            {
              "internalType": "uint256",
              "name": "itemId",
              "type": "uint256"
            },
            {
              "internalType": "address",
              "name": "nftContract",
              "type": "address"
            },
            {
              "internalType": "uint256",
              "name": "tokenId",
              "type": "uint256"
            },
            {
              "internalType": "address payable",
              "name": "seller",
              "type": "address"
            },
            {
              "internalType": "address payable",
              "name": "owner",
              "type": "address"
            },
            {
              "internalType": "address payable",
              "name": "minter",
              "type": "address"
            },
            {
              "internalType": "uint256",
              "name": "royalty",
              "type": "uint256"
            },
            {
              "internalType": "uint256",
              "name": "price",
              "type": "uint256"
            },
            {
              "internalType": "bool",
              "name": "sold",
              "type": "bool"
            },
            {
              "internalType": "bool",
              "name": "isActive",
              "type": "bool"
            }
          ],
          "internalType": "struct NFTMarket.MarketItem[]",
          "name": "",
          "type": "tuple[]"
        }
      ],
      "stateMutability": "view",
      "type": "function",
      "constant": true
    },
    {
      "inputs": [],
      "name": "fetchMyNFTs",
      "outputs": [
        {
          "components": [
            {
              "internalType": "uint256",
              "name": "itemId",
              "type": "uint256"
            },
            {
              "internalType": "address",
              "name": "nftContract",
              "type": "address"
            },
            {
              "internalType": "uint256",
              "name": "tokenId",
              "type": "uint256"
            },
            {
              "internalType": "address payable",
              "name": "seller",
              "type": "address"
            },
            {
              "internalType": "address payable",
              "name": "owner",
              "type": "address"
            },
            {
              "internalType": "address payable",
              "name": "minter",
              "type": "address"
            },
            {
              "internalType": "uint256",
              "name": "royalty",
              "type": "uint256"
            },
            {
              "internalType": "uint256",
              "name": "price",
              "type": "uint256"
            },
            {
              "internalType": "bool",
              "name": "sold",
              "type": "bool"
            },
            {
              "internalType": "bool",
              "name": "isActive",
              "type": "bool"
            }
          ],
          "internalType": "struct NFTMarket.MarketItem[]",
          "name": "",
          "type": "tuple[]"
        }
      ],
      "stateMutability": "view",
      "type": "function",
      "constant": true
    },
    {
      "inputs": [],
      "name": "fetchItemsCreated",
      "outputs": [
        {
          "components": [
            {
              "internalType": "uint256",
              "name": "itemId",
              "type": "uint256"
            },
            {
              "internalType": "address",
              "name": "nftContract",
              "type": "address"
            },
            {
              "internalType": "uint256",
              "name": "tokenId",
              "type": "uint256"
            },
            {
              "internalType": "address payable",
              "name": "seller",
              "type": "address"
            },
            {
              "internalType": "address payable",
              "name": "owner",
              "type": "address"
            },
            {
              "internalType": "address payable",
              "name": "minter",
              "type": "address"
            },
            {
              "internalType": "uint256",
              "name": "royalty",
              "type": "uint256"
            },
            {
              "internalType": "uint256",
              "name": "price",
              "type": "uint256"
            },
            {
              "internalType": "bool",
              "name": "sold",
              "type": "bool"
            },
            {
              "internalType": "bool",
              "name": "isActive",
              "type": "bool"
            }
          ],
          "internalType": "struct NFTMarket.MarketItem[]",
          "name": "",
          "type": "tuple[]"
        }
      ],
      "stateMutability": "view",
      "type": "function",
      "constant": true
    }
  ],
  "bytecode": "0x60806040526003600a553480156200001657600080fd5b506040516200211b3803806200211b833981016040819052620000399162000116565b60016000556200006462000055640100000000620000a3810204565b640100000000620000a7810204565b60098054600160a060020a03938416600160a060020a03199182168117909255600880548216909217909155600580549290931691161790556200014e565b3390565b60018054600160a060020a03838116600160a060020a0319831681179093556040519116919082907f8be0079c531659141344cd1fd0a4f28419497f9722a3daafe3b4186f6b6457e090600090a35050565b8051600160a060020a03811681146200011157600080fd5b919050565b600080604083850312156200012a57600080fd5b6200013583620000f9565b91506200014560208401620000f9565b90509250929050565b611fbd806200015e6000396000f3fe608060405260043610610113576000357c01000000000000000000000000000000000000000000000000000000009004806394173af9116100ac578063e75722301161007e578063e7572230146103bc578063e7fb74c7146103ec578063f064c32e146103ff578063f0f4426014610414578063f2fde38b1461043457005b806394173af91461027c5780639f161af21461029c578063cc4841b4146102bc578063e61a70c0146102dc57005b806347dfd3d1116100e557806347dfd3d1146101ff57806353def3931461021f578063715018a6146102355780638da5cb5b1461024a57005b80630f08efe01461011c578063150b7a0214610147578063202e3740146101bc57806322732a04146101d157005b3661011a57005b005b34801561012857600080fd5b50610131610454565b60405161013e9190611bbc565b60405180910390f35b34801561015357600080fd5b5061018b610162366004611ca3565b7f150b7a0200000000000000000000000000000000000000000000000000000000949350505050565b6040517fffffffff00000000000000000000000000000000000000000000000000000000909116815260200161013e565b3480156101c857600080fd5b5061013161060d565b3480156101dd57600080fd5b506101f16101ec366004611d83565b610802565b60405190815260200161013e565b34801561020b57600080fd5b5061011a61021a366004611d83565b61084e565b34801561022b57600080fd5b506101f1600a5481565b34801561024157600080fd5b5061011a610880565b34801561025657600080fd5b50600154600160a060020a03165b604051600160a060020a03909116815260200161013e565b34801561028857600080fd5b5061011a610297366004611d83565b6108b9565b3480156102a857600080fd5b5061011a6102b7366004611d9c565b610ad2565b3480156102c857600080fd5b5060085461026490600160a060020a031681565b3480156102e857600080fd5b5061035e6102f7366004611d83565b600b602052600090815260409020805460018201546002830154600384015460048501546005860154600687015460078801546008909801549697600160a060020a0396871697959694851695938516949092169290919060ff808216916101009004168a565b604080519a8b52600160a060020a03998a1660208c01528a019790975294871660608901529286166080880152941660a086015260c085019390935260e084019290925290151561010083015215156101208201526101400161013e565b3480156103c857600080fd5b506101f16103d7366004611d83565b6000908152600b602052604090206007015490565b61011a6103fa366004611d83565b6111a5565b34801561040b57600080fd5b506101316117c9565b34801561042057600080fd5b5061011a61042f366004611dd1565b6119be565b34801561044057600080fd5b5061011a61044f366004611dd1565b611a1a565b6060600061046160025490565b9050600061047a61047160045490565b60025490611ad2565b90506000808267ffffffffffffffff81111561049857610498611c8a565b6040519080825280602002602001820160405280156104d157816020015b6104be611b68565b8152602001906001900390816104b65790505b50905060005b8481101561060457600b60006104ee836001611ae5565b815260208101919091526040016000206008015460ff610100909104161515600114156105f2576000610522826001611ae5565b6000818152600b6020908152604091829020825161014081018452815481526001820154600160a060020a0390811693820193909352600282015493810193909352600381015482166060840152600481015482166080840152600581015490911660a0830152600681015460c0830152600781015460e0830152600881015460ff8082161515610100808601919091529091041615156101208301528551929350918590879081106105d7576105d7611dee565b60209081029190910101526105ed856001611ae5565b945050505b806105fc81611e20565b9150506104d7565b50949350505050565b6060600061061a60025490565b905060008060005b8381101561067d5733600b600061063a846001611ae5565b8152602081019190915260400160002060040154600160a060020a0316141561066b57610668836001611ae5565b92505b8061067581611e20565b915050610622565b5060008267ffffffffffffffff81111561069957610699611c8a565b6040519080825280602002602001820160405280156106d257816020015b6106bf611b68565b8152602001906001900390816106b75790505b50905060005b848110156106045733600b60006106f0846001611ae5565b8152602081019190915260400160002060040154600160a060020a031614156107f0576000610720826001611ae5565b6000818152600b6020908152604091829020825161014081018452815481526001820154600160a060020a0390811693820193909352600282015493810193909352600381015482166060840152600481015482166080840152600581015490911660a0830152600681015460c0830152600781015460e0830152600881015460ff8082161515610100808601919091529091041615156101208301528551929350918590879081106107d5576107d5611dee565b60209081029190910101526107eb856001611ae5565b945050505b806107fa81611e20565b9150506106d8565b600061080d60025490565b8211156108385760405160e560020a62461bcd02815260040161082f90611e3b565b60405180910390fd5b506000908152600b602052604090206006015490565b600154600160a060020a0316331461087b5760405160e560020a62461bcd02815260040161082f90611e72565b600a55565b600154600160a060020a031633146108ad5760405160e560020a62461bcd02815260040161082f90611e72565b6108b76000611af1565b565b600260005414156108df5760405160e560020a62461bcd02815260040161082f90611ea7565b60026000819055548111156109095760405160e560020a62461bcd02815260040161082f90611e3b565b6000818152600b6020526040902060030154600160a060020a03163314801561094457506000818152600b602052604090206008015460ff16155b801561096c57506000818152600b602052604090206008015460ff6101009091041615156001145b61097557600080fd5b6000818152600b60205260409020600801805461ff001916905561099d600480546001019055565b6000818152600b6020526040808220600181015460029091015491517f095ea7b300000000000000000000000000000000000000000000000000000000815260048101939093526024830191909152600160a060020a03169063095ea7b390604401600060405180830381600087803b158015610a1957600080fd5b505af1158015610a2d573d6000803e3d6000fd5b5050506000828152600b602052604090819020600181015460029091015491517f23b872dd0000000000000000000000000000000000000000000000000000000081523060048201523360248201526044810192909252600160a060020a031691506323b872dd90606401600060405180830381600087803b158015610ab257600080fd5b505af1158015610ac6573d6000803e3d6000fd5b50506001600055505050565b60026000541415610af85760405160e560020a62461bcd02815260040161082f90611ea7565b6002600055600160a060020a038316610b565760405160e560020a62461bcd02815260206004820152601f60248201527f7a65726f20616464726573732063616e6e6f7420626520616e20696e70757400604482015260640161082f565b60008111610ba95760405160e560020a62461bcd02815260206004820152601c60248201527f5072696365206d757374206265206174206c6561737420312077656900000000604482015260640161082f565b6040517f6352211e00000000000000000000000000000000000000000000000000000000815260048101839052600090600160a060020a03851690636352211e9060240160206040518083038186803b158015610c0557600080fd5b505afa158015610c19573d6000803e3d6000fd5b505050506040513d601f19601f82011682018060405250810190610c3d9190611ede565b6040517f081812fc00000000000000000000000000000000000000000000000000000000815260048101859052909150600160a060020a0385169063081812fc9060240160206040518083038186803b158015610c9957600080fd5b505afa158015610cad573d6000803e3d6000fd5b505050506040513d601f19601f82011682018060405250810190610cd19190611ede565b600160a060020a031633600160a060020a03161480610cf8575033600160a060020a038216145b610d6d5760405160e560020a62461bcd02815260206004820152602d60248201527f43616c6c6572206d75737420626520617070726f766564206f72206f776e657260448201527f20666f7220746f6b656e20696400000000000000000000000000000000000000606482015260840161082f565b600080610d7e600280546001019055565b6000610d8960025490565b600954909150600160a060020a0388811691161415610ed0576008546040517f69220c4600000000000000000000000000000000000000000000000000000000815260048101889052600160a060020a03909116906369220c469060240160206040518083038186803b158015610dff57600080fd5b505afa158015610e13573d6000803e3d6000fd5b505050506040513d601f19601f82011682018060405250810190610e379190611ede565b6008546040517f28a1b16800000000000000000000000000000000000000000000000000000000815260048101899052919450600160a060020a0316906328a1b1689060240160206040518083038186803b158015610e9557600080fd5b505afa158015610ea9573d6000803e3d6000fd5b505050506040513d601f19601f82011682018060405250810190610ecd9190611efb565b91505b60405180610140016040528082815260200188600160a060020a0316815260200187815260200133600160a060020a03168152602001600560009054906101000a9004600160a060020a0316600160a060020a0316815260200184600160a060020a0316815260200183815260200186815260200160001515815260200160011515815250600b60008381526020019081526020016000206000820151816000015560208201518160010160006101000a815481600160a060020a030219169083600160a060020a031602179055506040820151816002015560608201518160030160006101000a815481600160a060020a030219169083600160a060020a0316021790555060808201518160040160006101000a815481600160a060020a030219169083600160a060020a0316021790555060a08201518160050160006101000a815481600160a060020a030219169083600160a060020a0316021790555060c0820151816006015560e082015181600701556101008201518160080160006101000a81548160ff0219169083151502179055506101208201518160080160016101000a81548160ff02191690831515021790555090505086600160a060020a03166342842e0e3330896040518463ffffffff167c01000000000000000000000000000000000000000000000000000000000281526004016110f493929190600160a060020a039384168152919092166020820152604081019190915260600190565b600060405180830381600087803b15801561110e57600080fd5b505af1158015611122573d6000803e3d6000fd5b505060055460408051338152600160a060020a0392831660208201528783168183015260608101879052608081018a9052600060a0820152600160c082015290518a9450918b16925084917f24521d740b67921c3632742c31e63fea8074dab11b4e9769d9bb73710e246fc59181900360e00190a4505060016000555050505050565b600260005414156111cb5760405160e560020a62461bcd02815260040161082f90611ea7565b60026000819055548111156111f55760405160e560020a62461bcd02815260040161082f90611e3b565b6000818152600b602052604090206008015460ff6101009091041615156001146112645760405160e560020a62461bcd02815260206004820152601660248201527f7468652073616c65206973206e6f742061637469766500000000000000000000604482015260640161082f565b6000818152600b6020526040902060030154600160a060020a03163314156112d15760405160e560020a62461bcd02815260206004820152601160248201527f73656c6c65722063616e6e6f7420627579000000000000000000000000000000604482015260640161082f565b6000818152600b602052604090206007810154600290910154348214611364576040805160e560020a62461bcd0281526020600482015260248101919091527f506c65617365207375626d6974207468652061736b696e67207072696365206960448201527f6e206f7264657220746f20636f6d706c65746520746865207075726368617365606482015260840161082f565b6000838152600b602052604090206008015460ff16156113c95760405160e560020a62461bcd02815260206004820152600c60248201527f416c726561647920536f6c640000000000000000000000000000000000000000604482015260640161082f565b6000838152600b60205260409020600381015460068054600160a060020a0392831673ffffffffffffffffffffffffffffffffffffffff19918216178255600584015460078054919094169116179091550154801561152e576000611444606461143e600a5434611b5090919063ffffffff16565b90611b5c565b905060006114523483611ad2565b90506000611465606461143e8487611b50565b905060006114738383611ad2565b600754604051919250600160a060020a03169083156108fc029084906000818181858888f193505050501580156114ae573d6000803e3d6000fd5b50600554604051600160a060020a039091169085156108fc029086906000818181858888f193505050501580156114e9573d6000803e3d6000fd5b50600654604051600160a060020a039091169082156108fc029083906000818181858888f19350505050158015611524573d6000803e3d6000fd5b50505050506115d2565b600061154a606461143e600a5434611b5090919063ffffffff16565b905060006115583483611ad2565b600554604051919250600160a060020a03169083156108fc029084906000818181858888f19350505050158015611593573d6000803e3d6000fd5b50600654604051600160a060020a039091169082156108fc029083906000818181858888f193505050501580156115ce573d6000803e3d6000fd5b5050505b6000848152600b6020526040808220600181015460029091015491517f095ea7b300000000000000000000000000000000000000000000000000000000815260048101939093526024830191909152600160a060020a03169063095ea7b390604401600060405180830381600087803b15801561164e57600080fd5b505af1158015611662573d6000803e3d6000fd5b5050506000858152600b6020526040908190206001015490517f42842e0e00000000000000000000000000000000000000000000000000000000815230600482015233602482015260448101859052600160a060020a0390911691506342842e0e90606401600060405180830381600087803b1580156116e157600080fd5b505af11580156116f5573d6000803e3d6000fd5b5050506000858152600b6020526040902060048101805473ffffffffffffffffffffffffffffffffffffffff191633179055600801805461ffff1916600117905550611745600380546001019055565b611753600480546001019055565b6000848152600b60209081526040808320600190810154825133815234948101949094529183015260608201929092528391600160a060020a03169086907f0593cfec771673a34be8ba5cdc018d5aedc53cb327542f7f8dadecb428d1a4459060800160405180910390a4505060016000555050565b606060006117d660025490565b905060008060005b838110156118395733600b60006117f6846001611ae5565b8152602081019190915260400160002060030154600160a060020a0316141561182757611824836001611ae5565b92505b8061183181611e20565b9150506117de565b5060008267ffffffffffffffff81111561185557611855611c8a565b60405190808252806020026020018201604052801561188e57816020015b61187b611b68565b8152602001906001900390816118735790505b50905060005b848110156106045733600b60006118ac846001611ae5565b8152602081019190915260400160002060030154600160a060020a031614156119ac5760006118dc826001611ae5565b6000818152600b6020908152604091829020825161014081018452815481526001820154600160a060020a0390811693820193909352600282015493810193909352600381015482166060840152600481015482166080840152600581015490911660a0830152600681015460c0830152600781015460e0830152600881015460ff80821615156101008086019190915290910416151561012083015285519293509185908790811061199157611991611dee565b60209081029190910101526119a7856001611ae5565b945050505b806119b681611e20565b915050611894565b600154600160a060020a031633146119eb5760405160e560020a62461bcd02815260040161082f90611e72565b6005805473ffffffffffffffffffffffffffffffffffffffff1916600160a060020a0392909216919091179055565b600154600160a060020a03163314611a475760405160e560020a62461bcd02815260040161082f90611e72565b600160a060020a038116611ac65760405160e560020a62461bcd02815260206004820152602660248201527f4f776e61626c653a206e6577206f776e657220697320746865207a65726f206160448201527f6464726573730000000000000000000000000000000000000000000000000000606482015260840161082f565b611acf81611af1565b50565b6000611ade8284611f14565b9392505050565b6000611ade8284611f2b565b60018054600160a060020a0383811673ffffffffffffffffffffffffffffffffffffffff19831681179093556040519116919082907f8be0079c531659141344cd1fd0a4f28419497f9722a3daafe3b4186f6b6457e090600090a35050565b6000611ade8284611f43565b6000611ade8284611f62565b6040805161014081018252600080825260208201819052918101829052606081018290526080810182905260a0810182905260c0810182905260e08101829052610100810182905261012081019190915290565b602080825282518282018190526000919060409081850190868401855b82811015611c685781518051855286810151600160a060020a0390811688870152868201518787015260608083015182169087015260808083015182169087015260a0808301519091169086015260c0808201519086015260e0808201519086015261010080820151151590860152610120908101511515908501526101409093019290850190600101611bd9565b5091979650505050505050565b600160a060020a0381168114611acf57600080fd5b60e060020a634e487b7102600052604160045260246000fd5b60008060008060808587031215611cb957600080fd5b8435611cc481611c75565b93506020850135611cd481611c75565b925060408501359150606085013567ffffffffffffffff80821115611cf857600080fd5b818701915087601f830112611d0c57600080fd5b813581811115611d1e57611d1e611c8a565b604051601f8201601f19908116603f01168101908382118183101715611d4657611d46611c8a565b816040528281528a6020848701011115611d5f57600080fd5b82602086016020830137600060208483010152809550505050505092959194509250565b600060208284031215611d9557600080fd5b5035919050565b600080600060608486031215611db157600080fd5b8335611dbc81611c75565b95602085013595506040909401359392505050565b600060208284031215611de357600080fd5b8135611ade81611c75565b60e060020a634e487b7102600052603260045260246000fd5b60e060020a634e487b7102600052601160045260246000fd5b6000600019821415611e3457611e34611e07565b5060010190565b60208082526011908201527f20456e74657220612076616c6964204964000000000000000000000000000000604082015260600190565b6020808252818101527f4f776e61626c653a2063616c6c6572206973206e6f7420746865206f776e6572604082015260600190565b6020808252601f908201527f5265656e7472616e637947756172643a207265656e7472616e742063616c6c00604082015260600190565b600060208284031215611ef057600080fd5b8151611ade81611c75565b600060208284031215611f0d57600080fd5b5051919050565b600082821015611f2657611f26611e07565b500390565b60008219821115611f3e57611f3e611e07565b500190565b6000816000190483118215151615611f5d57611f5d611e07565b500290565b600082611f825760e060020a634e487b7102600052601260045260246000fd5b50049056fea26469706673582212209e13e9fe8976e462513d3ec7d50efcdfa1b08c06fe1236014921ee301c86f64064736f6c63430008090033",
  "immutableReferences": {},
  "source": "/**\r\n *Submitted for verification at BscScan.com on 2021-12-13\r\n*/\r\n\r\n// SPDX-License-Identifier: MIT \r\npragma solidity 0.8.9;\r\n\r\ninterface IERC165 {\r\n    /**\r\n     * @dev Returns true if this contract implements the interface defined by\r\n     * `interfaceId`. See the corresponding\r\n     * https://eips.ethereum.org/EIPS/eip-165#how-interfaces-are-identified[EIP section]\r\n     * to learn more about how these ids are created.\r\n     *\r\n     * This function call must use less than 30 000 gas.\r\n     */\r\n    function supportsInterface(bytes4 interfaceId) external view returns (bool);\r\n}\r\n\r\n\r\n\r\n\r\n// import \"../../utils/introspection/IERC165.sol\";\r\n\r\n/**\r\n * @dev Required interface of an ERC721 compliant contract.\r\n */\r\ninterface IERC721 is IERC165 {\r\n    /**\r\n     * @dev Emitted when `tokenId` token is transferred from `from` to `to`.\r\n     */\r\n    event Transfer(address indexed from, address indexed to, uint256 indexed tokenId);\r\n\r\n    /**\r\n     * @dev Emitted when `owner` enables `approved` to manage the `tokenId` token.\r\n     */\r\n    event Approval(address indexed owner, address indexed approved, uint256 indexed tokenId);\r\n\r\n    /**\r\n     * @dev Emitted when `owner` enables or disables (`approved`) `operator` to manage all of its assets.\r\n     */\r\n    event ApprovalForAll(address indexed owner, address indexed operator, bool approved);\r\n\r\n    /**\r\n     * @dev Returns the number of tokens in ``owner``'s account.\r\n     */\r\n    function balanceOf(address owner) external view returns (uint256 balance);\r\n\r\n    /**\r\n     * @dev Returns the owner of the `tokenId` token.\r\n     *\r\n     * Requirements:\r\n     *\r\n     * - `tokenId` must exist.\r\n     */\r\n    function ownerOf(uint256 tokenId) external view returns (address owner);\r\n\r\n    /**\r\n     * @dev Safely transfers `tokenId` token from `from` to `to`, checking first that contract recipients\r\n     * are aware of the ERC721 protocol to prevent tokens from being forever locked.\r\n     *\r\n     * Requirements:\r\n     *\r\n     * - `from` cannot be the zero address.\r\n     * - `to` cannot be the zero address.\r\n     * - `tokenId` token must exist and be owned by `from`.\r\n     * - If the caller is not `from`, it must be have been allowed to move this token by either {approve} or {setApprovalForAll}.\r\n     * - If `to` refers to a smart contract, it must implement {IERC721Receiver-onERC721Received}, which is called upon a safe transfer.\r\n     *\r\n     * Emits a {Transfer} event.\r\n     */\r\n    function safeTransferFrom(\r\n        address from,\r\n        address to,\r\n        uint256 tokenId\r\n    ) external;\r\n\r\n    /**\r\n     * @dev Transfers `tokenId` token from `from` to `to`.\r\n     *\r\n     * WARNING: Usage of this method is discouraged, use {safeTransferFrom} whenever possible.\r\n     *\r\n     * Requirements:\r\n     *\r\n     * - `from` cannot be the zero address.\r\n     * - `to` cannot be the zero address.\r\n     * - `tokenId` token must be owned by `from`.\r\n     * - If the caller is not `from`, it must be approved to move this token by either {approve} or {setApprovalForAll}.\r\n     *\r\n     * Emits a {Transfer} event.\r\n     */\r\n    function transferFrom(\r\n        address from,\r\n        address to,\r\n        uint256 tokenId\r\n    ) external;\r\n\r\n    /**\r\n     * @dev Gives permission to `to` to transfer `tokenId` token to another account.\r\n     * The approval is cleared when the token is transferred.\r\n     *\r\n     * Only a single account can be approved at a time, so approving the zero address clears previous approvals.\r\n     *\r\n     * Requirements:\r\n     *\r\n     * - The caller must own the token or be an approved operator.\r\n     * - `tokenId` must exist.\r\n     *\r\n     * Emits an {Approval} event.\r\n     */\r\n    function approve(address to, uint256 tokenId) external;\r\n\r\n    /**\r\n     * @dev Returns the account approved for `tokenId` token.\r\n     *\r\n     * Requirements:\r\n     *\r\n     * - `tokenId` must exist.\r\n     */\r\n    function getApproved(uint256 tokenId) external view returns (address operator);\r\n\r\n    /**\r\n     * @dev Approve or remove `operator` as an operator for the caller.\r\n     * Operators can call {transferFrom} or {safeTransferFrom} for any token owned by the caller.\r\n     *\r\n     * Requirements:\r\n     *\r\n     * - The `operator` cannot be the caller.\r\n     *\r\n     * Emits an {ApprovalForAll} event.\r\n     */\r\n    function setApprovalForAll(address operator, bool _approved) external;\r\n\r\n    /**\r\n     * @dev Returns if the `operator` is allowed to manage all of the assets of `owner`.\r\n     *\r\n     * See {setApprovalForAll}\r\n     */\r\n    function isApprovedForAll(address owner, address operator) external view returns (bool);\r\n\r\n    /**\r\n     * @dev Safely transfers `tokenId` token from `from` to `to`.\r\n     *\r\n     * Requirements:\r\n     *\r\n     * - `from` cannot be the zero address.\r\n     * - `to` cannot be the zero address.\r\n     * - `tokenId` token must exist and be owned by `from`.\r\n     * - If the caller is not `from`, it must be approved to move this token by either {approve} or {setApprovalForAll}.\r\n     * - If `to` refers to a smart contract, it must implement {IERC721Receiver-onERC721Received}, which is called upon a safe transfer.\r\n     *\r\n     * Emits a {Transfer} event.\r\n     */\r\n    function safeTransferFrom(\r\n        address from,\r\n        address to,\r\n        uint256 tokenId,\r\n        bytes calldata data\r\n    ) external;\r\n}\r\n\r\n\r\n\r\n\r\n/**\r\n * @title ERC721 token receiver interface\r\n * @dev Interface for any contract that wants to support safeTransfers\r\n * from ERC721 asset contracts.\r\n */\r\ninterface IERC721Receiver {\r\n    /**\r\n     * @dev Whenever an {IERC721} `tokenId` token is transferred to this contract via {IERC721-safeTransferFrom}\r\n     * by `operator` from `from`, this function is called.\r\n     *\r\n     * It must return its Solidity selector to confirm the token transfer.\r\n     * If any other value is returned or the interface is not implemented by the recipient, the transfer will be reverted.\r\n     *\r\n     * The selector can be obtained in Solidity with `IERC721.onERC721Received.selector`.\r\n     */\r\n    function onERC721Received(\r\n        address operator,\r\n        address from,\r\n        uint256 tokenId,\r\n        bytes calldata data\r\n    ) external returns (bytes4);\r\n}\r\n\r\n\r\n\r\n\r\n// import \"../IERC721.sol\";\r\n\r\n/**\r\n * @title ERC-721 Non-Fungible Token Standard, optional metadata extension\r\n * @dev See https://eips.ethereum.org/EIPS/eip-721\r\n */\r\ninterface IERC721Metadata is IERC721 {\r\n    /**\r\n     * @dev Returns the token collection name.\r\n     */\r\n    function name() external view returns (string memory);\r\n\r\n    /**\r\n     * @dev Returns the token collection symbol.\r\n     */\r\n    function symbol() external view returns (string memory);\r\n\r\n    /**\r\n     * @dev Returns the Uniform Resource Identifier (URI) for `tokenId` token.\r\n     */\r\n    function tokenURI(uint256 tokenId) external view returns (string memory);\r\n}\r\n\r\n\r\n/**\r\n * @dev Collection of functions related to the address type\r\n */\r\nlibrary Address {\r\n    /**\r\n     * @dev Returns true if `account` is a contract.\r\n     *\r\n     * [IMPORTANT]\r\n     * ====\r\n     * It is unsafe to assume that an address for which this function returns\r\n     * false is an externally-owned account (EOA) and not a contract.\r\n     *\r\n     * Among others, `isContract` will return false for the following\r\n     * types of addresses:\r\n     *\r\n     *  - an externally-owned account\r\n     *  - a contract in construction\r\n     *  - an address where a contract will be created\r\n     *  - an address where a contract lived, but was destroyed\r\n     * ====\r\n     */\r\n    function isContract(address account) internal view returns (bool) {\r\n        // This method relies on extcodesize, which returns 0 for contracts in\r\n        // construction, since the code is only stored at the end of the\r\n        // constructor execution.\r\n\r\n        uint256 size;\r\n        assembly {\r\n            size := extcodesize(account)\r\n        }\r\n        return size > 0;\r\n    }\r\n\r\n    /**\r\n     * @dev Replacement for Solidity's `transfer`: sends `amount` wei to\r\n     * `recipient`, forwarding all available gas and reverting on errors.\r\n     *\r\n     * https://eips.ethereum.org/EIPS/eip-1884[EIP1884] increases the gas cost\r\n     * of certain opcodes, possibly making contracts go over the 2300 gas limit\r\n     * imposed by `transfer`, making them unable to receive funds via\r\n     * `transfer`. {sendValue} removes this limitation.\r\n     *\r\n     * https://diligence.consensys.net/posts/2019/09/stop-using-soliditys-transfer-now/[Learn more].\r\n     *\r\n     * IMPORTANT: because control is transferred to `recipient`, care must be\r\n     * taken to not create reentrancy vulnerabilities. Consider using\r\n     * {ReentrancyGuard} or the\r\n     * https://solidity.readthedocs.io/en/v0.5.11/security-considerations.html#use-the-checks-effects-interactions-pattern[checks-effects-interactions pattern].\r\n     */\r\n    function sendValue(address payable recipient, uint256 amount) internal {\r\n        require(address(this).balance >= amount, \"Address: insufficient balance\");\r\n\r\n        (bool success, ) = recipient.call{value: amount}(\"\");\r\n        require(success, \"Address: unable to send value, recipient may have reverted\");\r\n    }\r\n\r\n    /**\r\n     * @dev Performs a Solidity function call using a low level `call`. A\r\n     * plain `call` is an unsafe replacement for a function call: use this\r\n     * function instead.\r\n     *\r\n     * If `target` reverts with a revert reason, it is bubbled up by this\r\n     * function (like regular Solidity function calls).\r\n     *\r\n     * Returns the raw returned data. To convert to the expected return value,\r\n     * use https://solidity.readthedocs.io/en/latest/units-and-global-variables.html?highlight=abi.decode#abi-encoding-and-decoding-functions[`abi.decode`].\r\n     *\r\n     * Requirements:\r\n     *\r\n     * - `target` must be a contract.\r\n     * - calling `target` with `data` must not revert.\r\n     *\r\n     * _Available since v3.1._\r\n     */\r\n    function functionCall(address target, bytes memory data) internal returns (bytes memory) {\r\n        return functionCall(target, data, \"Address: low-level call failed\");\r\n    }\r\n\r\n    /**\r\n     * @dev Same as {xref-Address-functionCall-address-bytes-}[`functionCall`], but with\r\n     * `errorMessage` as a fallback revert reason when `target` reverts.\r\n     *\r\n     * _Available since v3.1._\r\n     */\r\n    function functionCall(\r\n        address target,\r\n        bytes memory data,\r\n        string memory errorMessage\r\n    ) internal returns (bytes memory) {\r\n        return functionCallWithValue(target, data, 0, errorMessage);\r\n    }\r\n\r\n    /**\r\n     * @dev Same as {xref-Address-functionCall-address-bytes-}[`functionCall`],\r\n     * but also transferring `value` wei to `target`.\r\n     *\r\n     * Requirements:\r\n     *\r\n     * - the calling contract must have an ETH balance of at least `value`.\r\n     * - the called Solidity function must be `payable`.\r\n     *\r\n     * _Available since v3.1._\r\n     */\r\n    function functionCallWithValue(\r\n        address target,\r\n        bytes memory data,\r\n        uint256 value\r\n    ) internal returns (bytes memory) {\r\n        return functionCallWithValue(target, data, value, \"Address: low-level call with value failed\");\r\n    }\r\n\r\n    /**\r\n     * @dev Same as {xref-Address-functionCallWithValue-address-bytes-uint256-}[`functionCallWithValue`], but\r\n     * with `errorMessage` as a fallback revert reason when `target` reverts.\r\n     *\r\n     * _Available since v3.1._\r\n     */\r\n    function functionCallWithValue(\r\n        address target,\r\n        bytes memory data,\r\n        uint256 value,\r\n        string memory errorMessage\r\n    ) internal returns (bytes memory) {\r\n        require(address(this).balance >= value, \"Address: insufficient balance for call\");\r\n        require(isContract(target), \"Address: call to non-contract\");\r\n\r\n        (bool success, bytes memory returndata) = target.call{value: value}(data);\r\n        return verifyCallResult(success, returndata, errorMessage);\r\n    }\r\n\r\n    /**\r\n     * @dev Same as {xref-Address-functionCall-address-bytes-}[`functionCall`],\r\n     * but performing a static call.\r\n     *\r\n     * _Available since v3.3._\r\n     */\r\n    function functionStaticCall(address target, bytes memory data) internal view returns (bytes memory) {\r\n        return functionStaticCall(target, data, \"Address: low-level static call failed\");\r\n    }\r\n\r\n    /**\r\n     * @dev Same as {xref-Address-functionCall-address-bytes-string-}[`functionCall`],\r\n     * but performing a static call.\r\n     *\r\n     * _Available since v3.3._\r\n     */\r\n    function functionStaticCall(\r\n        address target,\r\n        bytes memory data,\r\n        string memory errorMessage\r\n    ) internal view returns (bytes memory) {\r\n        require(isContract(target), \"Address: static call to non-contract\");\r\n\r\n        (bool success, bytes memory returndata) = target.staticcall(data);\r\n        return verifyCallResult(success, returndata, errorMessage);\r\n    }\r\n\r\n    /**\r\n     * @dev Same as {xref-Address-functionCall-address-bytes-}[`functionCall`],\r\n     * but performing a delegate call.\r\n     *\r\n     * _Available since v3.4._\r\n     */\r\n    function functionDelegateCall(address target, bytes memory data) internal returns (bytes memory) {\r\n        return functionDelegateCall(target, data, \"Address: low-level delegate call failed\");\r\n    }\r\n\r\n    /**\r\n     * @dev Same as {xref-Address-functionCall-address-bytes-string-}[`functionCall`],\r\n     * but performing a delegate call.\r\n     *\r\n     * _Available since v3.4._\r\n     */\r\n    function functionDelegateCall(\r\n        address target,\r\n        bytes memory data,\r\n        string memory errorMessage\r\n    ) internal returns (bytes memory) {\r\n        require(isContract(target), \"Address: delegate call to non-contract\");\r\n\r\n        (bool success, bytes memory returndata) = target.delegatecall(data);\r\n        return verifyCallResult(success, returndata, errorMessage);\r\n    }\r\n\r\n    /**\r\n     * @dev Tool to verifies that a low level call was successful, and revert if it wasn't, either by bubbling the\r\n     * revert reason using the provided one.\r\n     *\r\n     * _Available since v4.3._\r\n     */\r\n    function verifyCallResult(\r\n        bool success,\r\n        bytes memory returndata,\r\n        string memory errorMessage\r\n    ) internal pure returns (bytes memory) {\r\n        if (success) {\r\n            return returndata;\r\n        } else {\r\n            // Look for revert reason and bubble it up if present\r\n            if (returndata.length > 0) {\r\n                // The easiest way to bubble the revert reason is using memory via assembly\r\n\r\n                assembly {\r\n                    let returndata_size := mload(returndata)\r\n                    revert(add(32, returndata), returndata_size)\r\n                }\r\n            } else {\r\n                revert(errorMessage);\r\n            }\r\n        }\r\n    }\r\n}\r\n\r\n\r\n\r\n\r\n/**\r\n * @dev Provides information about the current execution context, including the\r\n * sender of the transaction and its data. While these are generally available\r\n * via msg.sender and msg.data, they should not be accessed in such a direct\r\n * manner, since when dealing with meta-transactions the account sending and\r\n * paying for execution may not be the actual sender (as far as an application\r\n * is concerned).\r\n *\r\n * This contract is only required for intermediate, library-like contracts.\r\n */\r\nabstract contract Context {\r\n    function _msgSender() internal view virtual returns (address) {\r\n        return msg.sender;\r\n    }\r\n\r\n    function _msgData() internal view virtual returns (bytes calldata) {\r\n        return msg.data;\r\n    }\r\n}\r\n\r\n\r\n/**\r\n * @dev String operations.\r\n */\r\nlibrary Strings {\r\n    bytes16 private constant _HEX_SYMBOLS = \"0123456789abcdef\";\r\n\r\n    /**\r\n     * @dev Converts a `uint256` to its ASCII `string` decimal representation.\r\n     */\r\n    function toString(uint256 value) internal pure returns (string memory) {\r\n        // Inspired by OraclizeAPI's implementation - MIT licence\r\n        // https://github.com/oraclize/ethereum-api/blob/b42146b063c7d6ee1358846c198246239e9360e8/oraclizeAPI_0.4.25.sol\r\n\r\n        if (value == 0) {\r\n            return \"0\";\r\n        }\r\n        uint256 temp = value;\r\n        uint256 digits;\r\n        while (temp != 0) {\r\n            digits++;\r\n            temp /= 10;\r\n        }\r\n        bytes memory buffer = new bytes(digits);\r\n        while (value != 0) {\r\n            digits -= 1;\r\n            buffer[digits] = bytes1(uint8(48 + uint256(value % 10)));\r\n            value /= 10;\r\n        }\r\n        return string(buffer);\r\n    }\r\n\r\n    /**\r\n     * @dev Converts a `uint256` to its ASCII `string` hexadecimal representation.\r\n     */\r\n    function toHexString(uint256 value) internal pure returns (string memory) {\r\n        if (value == 0) {\r\n            return \"0x00\";\r\n        }\r\n        uint256 temp = value;\r\n        uint256 length = 0;\r\n        while (temp != 0) {\r\n            length++;\r\n            temp >>= 8;\r\n        }\r\n        return toHexString(value, length);\r\n    }\r\n\r\n    /**\r\n     * @dev Converts a `uint256` to its ASCII `string` hexadecimal representation with fixed length.\r\n     */\r\n    function toHexString(uint256 value, uint256 length) internal pure returns (string memory) {\r\n        bytes memory buffer = new bytes(2 * length + 2);\r\n        buffer[0] = \"0\";\r\n        buffer[1] = \"x\";\r\n        for (uint256 i = 2 * length + 1; i > 1; --i) {\r\n            buffer[i] = _HEX_SYMBOLS[value & 0xf];\r\n            value >>= 4;\r\n        }\r\n        require(value == 0, \"Strings: hex length insufficient\");\r\n        return string(buffer);\r\n    }\r\n}\r\n\r\n\r\n// import \"./IERC165.sol\";\r\n\r\n/**\r\n * @dev Implementation of the {IERC165} interface.\r\n *\r\n * Contracts that want to implement ERC165 should inherit from this contract and override {supportsInterface} to check\r\n * for the additional interface id that will be supported. For example:\r\n *\r\n * ```solidity\r\n * function supportsInterface(bytes4 interfaceId) public view virtual override returns (bool) {\r\n *     return interfaceId == type(MyInterface).interfaceId || super.supportsInterface(interfaceId);\r\n * }\r\n * ```\r\n *\r\n * Alternatively, {ERC165Storage} provides an easier to use but more expensive implementation.\r\n */\r\nabstract contract ERC165 is IERC165 {\r\n    /**\r\n     * @dev See {IERC165-supportsInterface}.\r\n     */\r\n    function supportsInterface(bytes4 interfaceId) public view virtual override returns (bool) {\r\n        return interfaceId == type(IERC165).interfaceId;\r\n    }\r\n}\r\n\r\n\r\n\r\n\r\n\r\n/*import \"./IERC721.sol\";\r\nimport \"./IERC721Receiver.sol\";\r\nimport \"./extensions/IERC721Metadata.sol\";\r\nimport \"../../utils/Address.sol\";\r\nimport \"../../utils/Context.sol\";\r\nimport \"../../utils/Strings.sol\";\r\nimport \"../../utils/introspection/ERC165.sol\";*/\r\n\r\n/**\r\n * @dev Implementation of https://eips.ethereum.org/EIPS/eip-721[ERC721] Non-Fungible Token Standard, including\r\n * the Metadata extension, but not including the Enumerable extension, which is available separately as\r\n * {ERC721Enumerable}.\r\n */\r\ncontract ERC721 is Context, ERC165, IERC721, IERC721Metadata {\r\n    using Address for address;\r\n    using Strings for uint256;\r\n\r\n    // Token name\r\n    string private _name;\r\n\r\n    // Token symbol\r\n    string private _symbol;\r\n\r\n    // Mapping from token ID to owner address\r\n    mapping(uint256 => address) private _owners;\r\n\r\n    // Mapping owner address to token count\r\n    mapping(address => uint256) private _balances;\r\n\r\n    // Mapping from token ID to approved address\r\n    mapping(uint256 => address) private _tokenApprovals;\r\n\r\n    // Mapping from owner to operator approvals\r\n    mapping(address => mapping(address => bool)) private _operatorApprovals;\r\n\r\n    /**\r\n     * @dev Initializes the contract by setting a `name` and a `symbol` to the token collection.\r\n     */\r\n    constructor(string memory name_, string memory symbol_) {\r\n        _name = name_;\r\n        _symbol = symbol_;\r\n    }\r\n\r\n    /**\r\n     * @dev See {IERC165-supportsInterface}.\r\n     */\r\n    function supportsInterface(bytes4 interfaceId) public view virtual override(ERC165, IERC165) returns (bool) {\r\n        return\r\n            interfaceId == type(IERC721).interfaceId ||\r\n            interfaceId == type(IERC721Metadata).interfaceId ||\r\n            super.supportsInterface(interfaceId);\r\n    }\r\n\r\n    /**\r\n     * @dev See {IERC721-balanceOf}.\r\n     */\r\n    function balanceOf(address owner) public view virtual override returns (uint256) {\r\n        require(owner != address(0), \"ERC721: balance query for the zero address\");\r\n        return _balances[owner];\r\n    }\r\n\r\n    /**\r\n     * @dev See {IERC721-ownerOf}.\r\n     */\r\n    function ownerOf(uint256 tokenId) public view virtual override returns (address) {\r\n        address owner = _owners[tokenId];\r\n        require(owner != address(0), \"ERC721: owner query for nonexistent token\");\r\n        return owner;\r\n    }\r\n\r\n    /**\r\n     * @dev See {IERC721Metadata-name}.\r\n     */\r\n    function name() public view virtual override returns (string memory) {\r\n        return _name;\r\n    }\r\n\r\n    /**\r\n     * @dev See {IERC721Metadata-symbol}.\r\n     */\r\n    function symbol() public view virtual override returns (string memory) {\r\n        return _symbol;\r\n    }\r\n\r\n    /**\r\n     * @dev See {IERC721Metadata-tokenURI}.\r\n     */\r\n    function tokenURI(uint256 tokenId) public view virtual override returns (string memory) {\r\n        require(_exists(tokenId), \"ERC721Metadata: URI query for nonexistent token\");\r\n\r\n        string memory baseURI = _baseURI();\r\n        return bytes(baseURI).length > 0 ? string(abi.encodePacked(baseURI, tokenId.toString())) : \"\";\r\n    }\r\n\r\n    /**\r\n     * @dev Base URI for computing {tokenURI}. If set, the resulting URI for each\r\n     * token will be the concatenation of the `baseURI` and the `tokenId`. Empty\r\n     * by default, can be overriden in child contracts.\r\n     */\r\n    function _baseURI() internal view virtual returns (string memory) {\r\n        return \"\";\r\n    }\r\n\r\n    /**\r\n     * @dev See {IERC721-approve}.\r\n     */\r\n    function approve(address to, uint256 tokenId) public virtual override {\r\n        address owner = ERC721.ownerOf(tokenId);\r\n        require(to != owner, \"ERC721: approval to current owner\");\r\n\r\n        require(\r\n            _msgSender() == owner || isApprovedForAll(owner, _msgSender()),\r\n            \"ERC721: approve caller is not owner nor approved for all\"\r\n        );\r\n\r\n        _approve(to, tokenId);\r\n    }\r\n\r\n    /**\r\n     * @dev See {IERC721-getApproved}.\r\n     */\r\n    function getApproved(uint256 tokenId) public view virtual override returns (address) {\r\n        require(_exists(tokenId), \"ERC721: approved query for nonexistent token\");\r\n\r\n        return _tokenApprovals[tokenId];\r\n    }\r\n\r\n    /**\r\n     * @dev See {IERC721-setApprovalForAll}.\r\n     */\r\n    function setApprovalForAll(address operator, bool approved) public virtual override {\r\n        require(operator != _msgSender(), \"ERC721: approve to caller\");\r\n\r\n        _operatorApprovals[_msgSender()][operator] = approved;\r\n        emit ApprovalForAll(_msgSender(), operator, approved);\r\n    }\r\n\r\n    /**\r\n     * @dev See {IERC721-isApprovedForAll}.\r\n     */\r\n    function isApprovedForAll(address owner, address operator) public view virtual override returns (bool) {\r\n        return _operatorApprovals[owner][operator];\r\n    }\r\n\r\n    /**\r\n     * @dev See {IERC721-transferFrom}.\r\n     */\r\n    function transferFrom(\r\n        address from,\r\n        address to,\r\n        uint256 tokenId\r\n    ) public virtual override {\r\n        //solhint-disable-next-line max-line-length\r\n        require(_isApprovedOrOwner(_msgSender(), tokenId), \"ERC721: transfer caller is not owner nor approved\");\r\n\r\n        _transfer(from, to, tokenId);\r\n    }\r\n\r\n    /**\r\n     * @dev See {IERC721-safeTransferFrom}.\r\n     */\r\n    function safeTransferFrom(\r\n        address from,\r\n        address to,\r\n        uint256 tokenId\r\n    ) public virtual override {\r\n        safeTransferFrom(from, to, tokenId, \"\");\r\n    }\r\n\r\n    /**\r\n     * @dev See {IERC721-safeTransferFrom}.\r\n     */\r\n    function safeTransferFrom(\r\n        address from,\r\n        address to,\r\n        uint256 tokenId,\r\n        bytes memory _data\r\n    ) public virtual override {\r\n        require(_isApprovedOrOwner(_msgSender(), tokenId), \"ERC721: transfer caller is not owner nor approved\");\r\n        _safeTransfer(from, to, tokenId, _data);\r\n    }\r\n\r\n    /**\r\n     * @dev Safely transfers `tokenId` token from `from` to `to`, checking first that contract recipients\r\n     * are aware of the ERC721 protocol to prevent tokens from being forever locked.\r\n     *\r\n     * `_data` is additional data, it has no specified format and it is sent in call to `to`.\r\n     *\r\n     * This internal function is equivalent to {safeTransferFrom}, and can be used to e.g.\r\n     * implement alternative mechanisms to perform token transfer, such as signature-based.\r\n     *\r\n     * Requirements:\r\n     *\r\n     * - `from` cannot be the zero address.\r\n     * - `to` cannot be the zero address.\r\n     * - `tokenId` token must exist and be owned by `from`.\r\n     * - If `to` refers to a smart contract, it must implement {IERC721Receiver-onERC721Received}, which is called upon a safe transfer.\r\n     *\r\n     * Emits a {Transfer} event.\r\n     */\r\n    function _safeTransfer(\r\n        address from,\r\n        address to,\r\n        uint256 tokenId,\r\n        bytes memory _data\r\n    ) internal virtual {\r\n        _transfer(from, to, tokenId);\r\n        require(_checkOnERC721Received(from, to, tokenId, _data), \"ERC721: transfer to non ERC721Receiver implementer\");\r\n    }\r\n\r\n    /**\r\n     * @dev Returns whether `tokenId` exists.\r\n     *\r\n     * Tokens can be managed by their owner or approved accounts via {approve} or {setApprovalForAll}.\r\n     *\r\n     * Tokens start existing when they are minted (`_mint`),\r\n     * and stop existing when they are burned (`_burn`).\r\n     */\r\n    function _exists(uint256 tokenId) internal view virtual returns (bool) {\r\n        return _owners[tokenId] != address(0);\r\n    }\r\n\r\n    /**\r\n     * @dev Returns whether `spender` is allowed to manage `tokenId`.\r\n     *\r\n     * Requirements:\r\n     *\r\n     * - `tokenId` must exist.\r\n     */\r\n    function _isApprovedOrOwner(address spender, uint256 tokenId) internal view virtual returns (bool) {\r\n        require(_exists(tokenId), \"ERC721: operator query for nonexistent token\");\r\n        address owner = ERC721.ownerOf(tokenId);\r\n        return (spender == owner || getApproved(tokenId) == spender || isApprovedForAll(owner, spender));\r\n    }\r\n\r\n    /**\r\n     * @dev Safely mints `tokenId` and transfers it to `to`.\r\n     *\r\n     * Requirements:\r\n     *\r\n     * - `tokenId` must not exist.\r\n     * - If `to` refers to a smart contract, it must implement {IERC721Receiver-onERC721Received}, which is called upon a safe transfer.\r\n     *\r\n     * Emits a {Transfer} event.\r\n     */\r\n    function _safeMint(address to, uint256 tokenId) internal virtual {\r\n        _safeMint(to, tokenId, \"\");\r\n    }\r\n\r\n    /**\r\n     * @dev Same as {xref-ERC721-_safeMint-address-uint256-}[`_safeMint`], with an additional `data` parameter which is\r\n     * forwarded in {IERC721Receiver-onERC721Received} to contract recipients.\r\n     */\r\n    function _safeMint(\r\n        address to,\r\n        uint256 tokenId,\r\n        bytes memory _data\r\n    ) internal virtual {\r\n        _mint(to, tokenId);\r\n        require(\r\n            _checkOnERC721Received(address(0), to, tokenId, _data),\r\n            \"ERC721: transfer to non ERC721Receiver implementer\"\r\n        );\r\n    }\r\n\r\n    /**\r\n     * @dev Mints `tokenId` and transfers it to `to`.\r\n     *\r\n     * WARNING: Usage of this method is discouraged, use {_safeMint} whenever possible\r\n     *\r\n     * Requirements:\r\n     *\r\n     * - `tokenId` must not exist.\r\n     * - `to` cannot be the zero address.\r\n     *\r\n     * Emits a {Transfer} event.\r\n     */\r\n    function _mint(address to, uint256 tokenId) internal virtual {\r\n        require(to != address(0), \"ERC721: mint to the zero address\");\r\n        require(!_exists(tokenId), \"ERC721: token already minted\");\r\n\r\n        _beforeTokenTransfer(address(0), to, tokenId);\r\n\r\n        _balances[to] += 1;\r\n        _owners[tokenId] = to;\r\n\r\n        emit Transfer(address(0), to, tokenId);\r\n    }\r\n\r\n    /**\r\n     * @dev Destroys `tokenId`.\r\n     * The approval is cleared when the token is burned.\r\n     *\r\n     * Requirements:\r\n     *\r\n     * - `tokenId` must exist.\r\n     *\r\n     * Emits a {Transfer} event.\r\n     */\r\n    function _burn(uint256 tokenId) internal virtual {\r\n        address owner = ERC721.ownerOf(tokenId);\r\n\r\n        _beforeTokenTransfer(owner, address(0), tokenId);\r\n\r\n        // Clear approvals\r\n        _approve(address(0), tokenId);\r\n\r\n        _balances[owner] -= 1;\r\n        delete _owners[tokenId];\r\n\r\n        emit Transfer(owner, address(0), tokenId);\r\n    }\r\n\r\n    /**\r\n     * @dev Transfers `tokenId` from `from` to `to`.\r\n     *  As opposed to {transferFrom}, this imposes no restrictions on msg.sender.\r\n     *\r\n     * Requirements:\r\n     *\r\n     * - `to` cannot be the zero address.\r\n     * - `tokenId` token must be owned by `from`.\r\n     *\r\n     * Emits a {Transfer} event.\r\n     */\r\n    function _transfer(\r\n        address from,\r\n        address to,\r\n        uint256 tokenId\r\n    ) internal virtual {\r\n        require(ERC721.ownerOf(tokenId) == from, \"ERC721: transfer of token that is not own\");\r\n        require(to != address(0), \"ERC721: transfer to the zero address\");\r\n\r\n        _beforeTokenTransfer(from, to, tokenId);\r\n\r\n        // Clear approvals from the previous owner\r\n        _approve(address(0), tokenId);\r\n\r\n        _balances[from] -= 1;\r\n        _balances[to] += 1;\r\n        _owners[tokenId] = to;\r\n\r\n        emit Transfer(from, to, tokenId);\r\n    }\r\n\r\n    /**\r\n     * @dev Approve `to` to operate on `tokenId`\r\n     *\r\n     * Emits a {Approval} event.\r\n     */\r\n    function _approve(address to, uint256 tokenId) internal virtual {\r\n        _tokenApprovals[tokenId] = to;\r\n        emit Approval(ERC721.ownerOf(tokenId), to, tokenId);\r\n    }\r\n\r\n    /**\r\n     * @dev Internal function to invoke {IERC721Receiver-onERC721Received} on a target address.\r\n     * The call is not executed if the target address is not a contract.\r\n     *\r\n     * @param from address representing the previous owner of the given token ID\r\n     * @param to target address that will receive the tokens\r\n     * @param tokenId uint256 ID of the token to be transferred\r\n     * @param _data bytes optional data to send along with the call\r\n     * @return bool whether the call correctly returned the expected magic value\r\n     */\r\n    function _checkOnERC721Received(\r\n        address from,\r\n        address to,\r\n        uint256 tokenId,\r\n        bytes memory _data\r\n    ) private returns (bool) {\r\n        if (to.isContract()) {\r\n            try IERC721Receiver(to).onERC721Received(_msgSender(), from, tokenId, _data) returns (bytes4 retval) {\r\n                return retval == IERC721Receiver.onERC721Received.selector;\r\n            } catch (bytes memory reason) {\r\n                if (reason.length == 0) {\r\n                    revert(\"ERC721: transfer to non ERC721Receiver implementer\");\r\n                } else {\r\n                    assembly {\r\n                        revert(add(32, reason), mload(reason))\r\n                    }\r\n                }\r\n            }\r\n        } else {\r\n            return true;\r\n        }\r\n    }\r\n\r\n    /**\r\n     * @dev Hook that is called before any token transfer. This includes minting\r\n     * and burning.\r\n     *\r\n     * Calling conditions:\r\n     *\r\n     * - When `from` and `to` are both non-zero, ``from``'s `tokenId` will be\r\n     * transferred to `to`.\r\n     * - When `from` is zero, `tokenId` will be minted for `to`.\r\n     * - When `to` is zero, ``from``'s `tokenId` will be burned.\r\n     * - `from` and `to` are never both zero.\r\n     *\r\n     * To learn more about hooks, head to xref:ROOT:extending-contracts.adoc#using-hooks[Using Hooks].\r\n     */\r\n    function _beforeTokenTransfer(\r\n        address from,\r\n        address to,\r\n        uint256 tokenId\r\n    ) internal virtual {}\r\n}\r\n\r\n\r\n\r\n\r\n/**\r\n * @title Counters\r\n * @author Matt Condon (@shrugs)\r\n * @dev Provides counters that can only be incremented, decremented or reset. This can be used e.g. to track the number\r\n * of elements in a mapping, issuing ERC721 ids, or counting request ids.\r\n *\r\n * Include with `using Counters for Counters.Counter;`\r\n */\r\nlibrary Counters {\r\n    struct Counter {\r\n        // This variable should never be directly accessed by users of the library: interactions must be restricted to\r\n        // the library's function. As of Solidity v0.5.2, this cannot be enforced, though there is a proposal to add\r\n        // this feature: see https://github.com/ethereum/solidity/issues/4637\r\n        uint256 _value; // default: 0\r\n    }\r\n\r\n    function current(Counter storage counter) internal view returns (uint256) {\r\n        return counter._value;\r\n    }\r\n\r\n    function increment(Counter storage counter) internal {\r\n        unchecked {\r\n            counter._value += 1;\r\n        }\r\n    }\r\n\r\n    function decrement(Counter storage counter) internal {\r\n        uint256 value = counter._value;\r\n        require(value > 0, \"Counter: decrement overflow\");\r\n        unchecked {\r\n            counter._value = value - 1;\r\n        }\r\n    }\r\n\r\n    function reset(Counter storage counter) internal {\r\n        counter._value = 0;\r\n    }\r\n}\r\n\r\n// import \"../utils/Context.sol\";\r\n\r\n/**\r\n * @dev Contract module which provides a basic access control mechanism, where\r\n * there is an account (an owner) that can be granted exclusive access to\r\n * specific functions.\r\n *\r\n * By default, the owner account will be the one that deploys the contract. This\r\n * can later be changed with {transferOwnership}.\r\n *\r\n * This module is used through inheritance. It will make available the modifier\r\n * `onlyOwner`, which can be applied to your functions to restrict their use to\r\n * the owner.\r\n */\r\nabstract contract Ownable is Context {\r\n    address private _owner;\r\n\r\n    event OwnershipTransferred(address indexed previousOwner, address indexed newOwner);\r\n\r\n    /**\r\n     * @dev Initializes the contract setting the deployer as the initial owner.\r\n     */\r\n    constructor() {\r\n        _setOwner(_msgSender());\r\n    }\r\n\r\n    /**\r\n     * @dev Returns the address of the current owner.\r\n     */\r\n    function owner() public view virtual returns (address) {\r\n        return _owner;\r\n    }\r\n\r\n    /**\r\n     * @dev Throws if called by any account other than the owner.\r\n     */\r\n    modifier onlyOwner() {\r\n        require(owner() == _msgSender(), \"Ownable: caller is not the owner\");\r\n        _;\r\n    }\r\n\r\n    /**\r\n     * @dev Leaves the contract without owner. It will not be possible to call\r\n     * `onlyOwner` functions anymore. Can only be called by the current owner.\r\n     *\r\n     * NOTE: Renouncing ownership will leave the contract without an owner,\r\n     * thereby removing any functionality that is only available to the owner.\r\n     */\r\n    function renounceOwnership() public virtual onlyOwner {\r\n        _setOwner(address(0));\r\n    }\r\n\r\n    /**\r\n     * @dev Transfers ownership of the contract to a new account (`newOwner`).\r\n     * Can only be called by the current owner.\r\n     */\r\n    function transferOwnership(address newOwner) public virtual onlyOwner {\r\n        require(newOwner != address(0), \"Ownable: new owner is the zero address\");\r\n        _setOwner(newOwner);\r\n    }\r\n\r\n    function _setOwner(address newOwner) private {\r\n        address oldOwner = _owner;\r\n        _owner = newOwner;\r\n        emit OwnershipTransferred(oldOwner, newOwner);\r\n    }\r\n}\r\n\r\nabstract contract ReentrancyGuard {\r\n    // Booleans are more expensive than uint256 or any type that takes up a full\r\n    // word because each write operation emits an extra SLOAD to first read the\r\n    // slot's contents, replace the bits taken up by the boolean, and then write\r\n    // back. This is the compiler's defense against contract upgrades and\r\n    // pointer aliasing, and it cannot be disabled.\r\n\r\n    // The values being non-zero value makes deployment a bit more expensive,\r\n    // but in exchange the refund on every call to nonReentrant will be lower in\r\n    // amount. Since refunds are capped to a percentage of the total\r\n    // transaction's gas, it is best to keep them low in cases like this one, to\r\n    // increase the likelihood of the full refund coming into effect.\r\n    uint256 private constant _NOT_ENTERED = 1;\r\n    uint256 private constant _ENTERED = 2;\r\n\r\n    uint256 private _status;\r\n\r\n    constructor() {\r\n        _status = _NOT_ENTERED;\r\n    }\r\n\r\n    /**\r\n     * @dev Prevents a contract from calling itself, directly or indirectly.\r\n     * Calling a `nonReentrant` function from another `nonReentrant`\r\n     * function is not supported. It is possible to prevent this from happening\r\n     * by making the `nonReentrant` function external, and making it call a\r\n     * `private` function that does the actual work.\r\n     */\r\n    modifier nonReentrant() {\r\n        // On the first call to nonReentrant, _notEntered will be true\r\n        require(_status != _ENTERED, \"ReentrancyGuard: reentrant call\");\r\n\r\n        // Any calls to nonReentrant after this point will fail\r\n        _status = _ENTERED;\r\n\r\n        _;\r\n\r\n        // By storing the original value once again, a refund is triggered (see\r\n        // https://eips.ethereum.org/EIPS/eip-2200)\r\n        _status = _NOT_ENTERED;\r\n    }\r\n}\r\nlibrary SafeMath {\r\n    /**\r\n     * @dev Returns the addition of two unsigned integers, with an overflow flag.\r\n     *\r\n     * _Available since v3.4._\r\n     */\r\n    function tryAdd(uint256 a, uint256 b) internal pure returns (bool, uint256) {\r\n        unchecked {\r\n            uint256 c = a + b;\r\n            if (c < a) return (false, 0);\r\n            return (true, c);\r\n        }\r\n    }\r\n\r\n    /**\r\n     * @dev Returns the substraction of two unsigned integers, with an overflow flag.\r\n     *\r\n     * _Available since v3.4._\r\n     */\r\n    function trySub(uint256 a, uint256 b) internal pure returns (bool, uint256) {\r\n        unchecked {\r\n            if (b > a) return (false, 0);\r\n            return (true, a - b);\r\n        }\r\n    }\r\n\r\n    /**\r\n     * @dev Returns the multiplication of two unsigned integers, with an overflow flag.\r\n     *\r\n     * _Available since v3.4._\r\n     */\r\n    function tryMul(uint256 a, uint256 b) internal pure returns (bool, uint256) {\r\n        unchecked {\r\n            // Gas optimization: this is cheaper than requiring 'a' not being zero, but the\r\n            // benefit is lost if 'b' is also tested.\r\n            // See: https://github.com/OpenZeppelin/openzeppelin-contracts/pull/522\r\n            if (a == 0) return (true, 0);\r\n            uint256 c = a * b;\r\n            if (c / a != b) return (false, 0);\r\n            return (true, c);\r\n        }\r\n    }\r\n\r\n    /**\r\n     * @dev Returns the division of two unsigned integers, with a division by zero flag.\r\n     *\r\n     * _Available since v3.4._\r\n     */\r\n    function tryDiv(uint256 a, uint256 b) internal pure returns (bool, uint256) {\r\n        unchecked {\r\n            if (b == 0) return (false, 0);\r\n            return (true, a / b);\r\n        }\r\n    }\r\n\r\n    /**\r\n     * @dev Returns the remainder of dividing two unsigned integers, with a division by zero flag.\r\n     *\r\n     * _Available since v3.4._\r\n     */\r\n    function tryMod(uint256 a, uint256 b) internal pure returns (bool, uint256) {\r\n        unchecked {\r\n            if (b == 0) return (false, 0);\r\n            return (true, a % b);\r\n        }\r\n    }\r\n\r\n    /**\r\n     * @dev Returns the addition of two unsigned integers, reverting on\r\n     * overflow.\r\n     *\r\n     * Counterpart to Solidity's `+` operator.\r\n     *\r\n     * Requirements:\r\n     *\r\n     * - Addition cannot overflow.\r\n     */\r\n    function add(uint256 a, uint256 b) internal pure returns (uint256) {\r\n        return a + b;\r\n    }\r\n\r\n    /**\r\n     * @dev Returns the subtraction of two unsigned integers, reverting on\r\n     * overflow (when the result is negative).\r\n     *\r\n     * Counterpart to Solidity's `-` operator.\r\n     *\r\n     * Requirements:\r\n     *\r\n     * - Subtraction cannot overflow.\r\n     */\r\n    function sub(uint256 a, uint256 b) internal pure returns (uint256) {\r\n        return a - b;\r\n    }\r\n\r\n    /**\r\n     * @dev Returns the multiplication of two unsigned integers, reverting on\r\n     * overflow.\r\n     *\r\n     * Counterpart to Solidity's `*` operator.\r\n     *\r\n     * Requirements:\r\n     *\r\n     * - Multiplication cannot overflow.\r\n     */\r\n    function mul(uint256 a, uint256 b) internal pure returns (uint256) {\r\n        return a * b;\r\n    }\r\n\r\n    /**\r\n     * @dev Returns the integer division of two unsigned integers, reverting on\r\n     * division by zero. The result is rounded towards zero.\r\n     *\r\n     * Counterpart to Solidity's `/` operator.\r\n     *\r\n     * Requirements:\r\n     *\r\n     * - The divisor cannot be zero.\r\n     */\r\n    function div(uint256 a, uint256 b) internal pure returns (uint256) {\r\n        return a / b;\r\n    }\r\n\r\n    /**\r\n     * @dev Returns the remainder of dividing two unsigned integers. (unsigned integer modulo),\r\n     * reverting when dividing by zero.\r\n     *\r\n     * Counterpart to Solidity's `%` operator. This function uses a `revert`\r\n     * opcode (which leaves remaining gas untouched) while Solidity uses an\r\n     * invalid opcode to revert (consuming all remaining gas).\r\n     *\r\n     * Requirements:\r\n     *\r\n     * - The divisor cannot be zero.\r\n     */\r\n    function mod(uint256 a, uint256 b) internal pure returns (uint256) {\r\n        return a % b;\r\n    }\r\n\r\n    /**\r\n     * @dev Returns the subtraction of two unsigned integers, reverting with custom message on\r\n     * overflow (when the result is negative).\r\n     *\r\n     * CAUTION: This function is deprecated because it requires allocating memory for the error\r\n     * message unnecessarily. For custom revert reasons use {trySub}.\r\n     *\r\n     * Counterpart to Solidity's `-` operator.\r\n     *\r\n     * Requirements:\r\n     *\r\n     * - Subtraction cannot overflow.\r\n     */\r\n    function sub(\r\n        uint256 a,\r\n        uint256 b,\r\n        string memory errorMessage\r\n    ) internal pure returns (uint256) {\r\n        unchecked {\r\n            require(b <= a, errorMessage);\r\n            return a - b;\r\n        }\r\n    }\r\n\r\n    /**\r\n     * @dev Returns the integer division of two unsigned integers, reverting with custom message on\r\n     * division by zero. The result is rounded towards zero.\r\n     *\r\n     * Counterpart to Solidity's `/` operator. Note: this function uses a\r\n     * `revert` opcode (which leaves remaining gas untouched) while Solidity\r\n     * uses an invalid opcode to revert (consuming all remaining gas).\r\n     *\r\n     * Requirements:\r\n     *\r\n     * - The divisor cannot be zero.\r\n     */\r\n    function div(\r\n        uint256 a,\r\n        uint256 b,\r\n        string memory errorMessage\r\n    ) internal pure returns (uint256) {\r\n        unchecked {\r\n            require(b > 0, errorMessage);\r\n            return a / b;\r\n        }\r\n    }\r\n\r\n    /**\r\n     * @dev Returns the remainder of dividing two unsigned integers. (unsigned integer modulo),\r\n     * reverting with custom message when dividing by zero.\r\n     *\r\n     * CAUTION: This function is deprecated because it requires allocating memory for the error\r\n     * message unnecessarily. For custom revert reasons use {tryMod}.\r\n     *\r\n     * Counterpart to Solidity's `%` operator. This function uses a `revert`\r\n     * opcode (which leaves remaining gas untouched) while Solidity uses an\r\n     * invalid opcode to revert (consuming all remaining gas).\r\n     *\r\n     * Requirements:\r\n     *\r\n     * - The divisor cannot be zero.\r\n     */\r\n    function mod(\r\n        uint256 a,\r\n        uint256 b,\r\n        string memory errorMessage\r\n    ) internal pure returns (uint256) {\r\n        unchecked {\r\n            require(b > 0, errorMessage);\r\n            return a % b;\r\n        }\r\n    }\r\n}\r\ncontract MintNft is ERC721, Ownable, ReentrancyGuard{\r\n    using Counters for Counters.Counter;\r\n    Counters.Counter _tokenIdTracker;\r\n\r\n    mapping(uint256 => string) public _tokenURIs; //returns uris for particular token id\r\n    mapping(uint256 => address) public minter;   //returs minter of a token id\r\n    mapping(uint256 => uint256) public royalty;  //returns royalty of a token id\r\n    mapping(address => uint256[]) public mintedByUser;\r\n    uint256 public maximumRoyalty = 100;\r\n\r\n\r\n    constructor(string memory NAME, string memory SYMBOL) ERC721(NAME,SYMBOL) {\r\n    }\r\n\r\n   event minted (uint256 _NftId, string msg);\r\n   \r\n   event BatchMint(uint256 _totalNft, string msg);\r\n\r\n    function _mintNft(address creator,  string memory _TokenURI, uint256 _royaltyPercentage) \r\n    internal \r\n    returns (uint256) \r\n    {\r\n        uint256 NftId = _tokenIdTracker.current();\r\n        _safeMint(creator, NftId);\r\n        mintedByUser[creator].push(NftId);\r\n        royalty[NftId] = _royaltyPercentage;\r\n        minter[NftId] = creator;\r\n        _setTokenURI(NftId,_TokenURI);\r\n        _tokenIdTracker.increment();\r\n        emit minted (NftId,\"succesfully minted\");\r\n        \r\n    \r\n        return (NftId); \r\n    }\r\n    // function to mint multiple nfts\r\n    function batchMint( string[] memory _uri, uint256[] memory _royalty) external nonReentrant returns (bool) {\r\n        require(_uri.length == _royalty.length,\"Length of Uri and Royalty should be same\");\r\n        uint256 _totalNft = _uri.length;  \r\n        for(uint i = 0; i< _totalNft; i++) {\r\n            require(_royalty[i]< maximumRoyalty,\"Royalty cannnot be 100 or more\");\r\n            _mintNft(msg.sender, _uri[i], _royalty[i]);\r\n        }\r\n        \r\n        emit BatchMint(_totalNft, \"Batch Mint Success\");\r\n        return true;\r\n    }\r\n    // returns royalty\r\n    function royaltyForToken(uint256 tokenId) external view isValidId(tokenId) returns (uint256 percentage){\r\n        return(royalty[tokenId]);\r\n    }\r\n    // returns minter of a token\r\n     function minterOfToken(uint256 tokenId) external view returns (address _minter){\r\n        return(minter[tokenId]);\r\n    }\r\n    // sets uri for a token\r\n    function _setTokenURI(uint256 tokenId, string memory _tokenURI)\r\n        internal isValidId(tokenId)\r\n        virtual\r\n    {\r\n        require(_exists(tokenId), \"ERC721Metadata: URI query for nonexistent token\");\r\n        _tokenURIs[tokenId] = _tokenURI;\r\n    }\r\n   // returns the total amount of NFTs minted\r\n    function getTokenCounter() external view returns (uint256 tracker){\r\n        return(_tokenIdTracker.current());\r\n    }\r\n\r\n    function setMaxRoyalty(uint256 _royalty) external onlyOwner{\r\n        maximumRoyalty = _royalty;\r\n    }\r\n    \r\nfunction getNFTMintedByUser(address user) external view returns (uint256[] memory ids){\r\n    return(mintedByUser[user]);\r\n}\r\n     // returns uri of a particular token\r\n    function tokenURI(uint256 tokenId)\r\n        public\r\n        view\r\n        override isValidId(tokenId)\r\n        returns (string memory)\r\n    {\r\n        require(_exists(tokenId), \"ERC721Metadata: URI query for nonexistent token\");\r\n        string memory _tokenURI = _tokenURIs[tokenId];\r\n\r\n        return _tokenURI;\r\n    }\r\n    // update uri of a token\r\n    function UpdateTokenURI(uint256 tokenId, string memory _TokenURI)\r\n       external isValidId(tokenId)\r\n    {    require(\r\n            _exists(tokenId),\r\n            \"ERC721Metadata: URI set of nonexistent token\"\r\n        );\r\n         require(\r\n            ownerOf(tokenId) == msg.sender,\r\n            \"NFT_Minter: Only Owner Can update a NFT\"\r\n        );\r\n        _setTokenURI(tokenId,_TokenURI);\r\n    }\r\n    // modifier to check id tokenid exists or not\r\n    modifier isValidId( uint256 nftId){\r\n      require(nftId <= _tokenIdTracker.current());\r\n      _;\r\n  }\r\n    \r\n   \r\n\r\n}\r\n\r\n\r\n// NFT SALE CONTRACT \r\n\r\ncontract NFTMarket is IERC721Receiver, ReentrancyGuard, Ownable{\r\n  using Counters for Counters.Counter; \r\n  using SafeMath for uint;\r\n  Counters.Counter private _itemIds;     //count of sale items\r\n  Counters.Counter private _itemsSold;  //count of sold items\r\n  Counters.Counter private _itemsinActive;\r\n\r\n  address payable treasury;            // to transfer listingPrice\r\n   address payable _seller;\r\n address payable _minter;\r\n  MintNft public pangeaNft;\r\n  address pangeaNftAddress;\r\n  uint256 public treasuryRoyalty = 3;\r\n  \r\n  constructor(address _nftContract,address _treasury) {\r\n      \r\n  pangeaNftAddress = _nftContract;    //nft contract for pangea platform\r\n  pangeaNft = MintNft(_nftContract);\r\n    treasury = payable(_treasury);\r\n  }\r\n//struct for each market item\r\n  struct MarketItem {\r\n    uint itemId;\r\n    address nftContract;\r\n    uint256 tokenId;\r\n    address payable seller;\r\n    address payable owner;\r\n    address payable minter;\r\n    uint256 royalty;\r\n    uint256 price;\r\n    bool sold;\r\n    bool isActive;\r\n  }\r\n\r\n  mapping(uint256 => MarketItem) public idToMarketItem;\r\n\r\n  event saleCreated (\r\n    uint indexed itemId,\r\n    address indexed nftContract,\r\n    uint256 indexed tokenId,\r\n    address seller,\r\n    address owner,\r\n    address minter,\r\n    uint256 royalty,\r\n    uint256 price,\r\n    bool sold,\r\n    bool isActive\r\n  );\r\n\r\n  event ItemBought(\r\n      uint indexed itemId,\r\n      address indexed nftContract,\r\n    uint256 indexed tokenId,\r\n    address buyer,\r\n    uint256 price,\r\n    bool sold,\r\n    bool isActive\r\n     );\r\n \r\n  \r\n  /*get price of a particular item */\r\n   function getPrice(uint256 itemid) external view returns (uint256) {\r\n    return idToMarketItem[itemid].price;\r\n  }\r\n\r\n   function setTreasuryRoyalty(uint256 royalty) external onlyOwner {\r\n   treasuryRoyalty = royalty;\r\n  }\r\n\r\n  function setTreasury(address _treasury) external onlyOwner {\r\n    treasury = payable(_treasury);\r\n  }\r\n  \r\n   function onERC721Received(address, address, uint256, bytes memory) public virtual override returns (bytes4) {\r\n        return this.onERC721Received.selector;\r\n    }\r\n    \r\n  /* Places an item for sale on the marketplace */\r\n  function createSale(\r\n    address nftContract,\r\n    uint256 tokenId,\r\n    uint256 price\r\n  ) external  nonReentrant {\r\n    require(nftContract!=address(0),\"zero address cannot be an input\");\r\n    require(price > 0, \"Price must be at least 1 wei\");\r\n     address tokenOwner = IERC721(nftContract).ownerOf(tokenId);\r\n     require(msg.sender == IERC721(nftContract).getApproved(tokenId) || msg.sender == tokenOwner,\r\n     \"Caller must be approved or owner for token id\");\r\n     address minter = address(0);\r\n     uint256 royalty = 0; \r\n    _itemIds.increment();\r\n    uint256 itemId = _itemIds.current();\r\n    if( nftContract == pangeaNftAddress){\r\n    minter = pangeaNft.minterOfToken(tokenId);\r\n    royalty = pangeaNft.royaltyForToken(tokenId);\r\n    }\r\n    idToMarketItem[itemId] =  MarketItem(\r\n      itemId,\r\n      nftContract,\r\n      tokenId,\r\n      payable(msg.sender),\r\n      payable(treasury),\r\n      payable(minter),\r\n      royalty,\r\n      price,\r\n      false,\r\n      true \r\n    );\r\n\r\n    IERC721(nftContract).safeTransferFrom(msg.sender, address(this), tokenId); //nft gets transferred to the contract\r\n    emit saleCreated(\r\n      itemId,\r\n      nftContract,\r\n      tokenId,\r\n      msg.sender,\r\n      treasury,\r\n      minter,\r\n      royalty,\r\n      price,\r\n      false,\r\n      true \r\n    );\r\n  }\r\n\r\n  /* Creates the sale of a marketplace item */\r\n  /* Transfers treasuryship of the item, as well as funds between parties */\r\n  \r\n  \r\n  //function to  buyItem\r\n  function buyItem(\r\n    uint256 itemId\r\n    ) external payable nonReentrant   {\r\n    require(itemId <= _itemIds.current(), \" Enter a valid Id\");\r\n    require( idToMarketItem[itemId].isActive==true,\"the sale is not active\");\r\n    require(msg.sender!= idToMarketItem[itemId].seller,\"seller cannot buy\");\r\n    uint price = idToMarketItem[itemId].price;\r\n    uint tokenId = idToMarketItem[itemId].tokenId;\r\n    require(msg.value == price, \"Please submit the asking price in order to complete the purchase\");\r\n    require( idToMarketItem[itemId].sold == false,\"Already Sold\");\r\n     _seller = idToMarketItem[itemId].seller;\r\n     _minter = idToMarketItem[itemId].minter;\r\n    uint256 royalty = idToMarketItem[itemId].royalty;\r\n    if(royalty !=0){\r\n    uint256 amountToadmin = ((msg.value).mul((treasuryRoyalty))).div(100) ;\r\n    uint256 remainingAmount = (msg.value).sub(amountToadmin);\r\n    uint256 amountTominter = ((remainingAmount).mul((royalty))).div(100) ;\r\n    uint256 amountToSeller = (remainingAmount).sub(amountTominter);\r\n     payable(_minter).transfer(amountTominter);\r\n     payable(treasury).transfer(amountToadmin);\r\n    payable(_seller).transfer(amountToSeller);\r\n    }\r\n    else{\r\n    uint256 amountToadmin = ((msg.value).mul((treasuryRoyalty))).div(100) ;\r\n    uint256 remainingAmount = (msg.value).sub(amountToadmin);\r\n    payable(treasury).transfer(amountToadmin);\r\n    payable(_seller).transfer(remainingAmount);\r\n    }\r\n    IERC721(idToMarketItem[itemId].nftContract).approve(0x0000000000000000000000000000000000000000,idToMarketItem[itemId].tokenId);\r\n    IERC721(idToMarketItem[itemId].nftContract).safeTransferFrom(address(this), msg.sender, tokenId);\r\n    idToMarketItem[itemId].owner = payable(msg.sender);\r\n    idToMarketItem[itemId].sold = true;\r\n    idToMarketItem[itemId].isActive = false;\r\n    _itemsSold.increment();\r\n    _itemsinActive.increment();\r\n     emit ItemBought(\r\n      itemId,\r\n    idToMarketItem[itemId].nftContract,\r\n   tokenId,\r\n    msg.sender,\r\n   msg.value,\r\n    true,\r\n    false\r\n     );\r\n    \r\n  }\r\n  //function to end the sale\r\n  function EndSale(uint256 itemId) external nonReentrant {\r\n       require(itemId <= _itemIds.current(), \" Enter a valid Id\");\r\n      require(msg.sender==idToMarketItem[itemId].seller && idToMarketItem[itemId].sold == false && idToMarketItem[itemId].isActive == true );\r\n      idToMarketItem[itemId].isActive = false;\r\n      _itemsinActive.increment();\r\n    IERC721(idToMarketItem[itemId].nftContract).approve(0x0000000000000000000000000000000000000000,idToMarketItem[itemId].tokenId);\r\n      IERC721(idToMarketItem[itemId].nftContract).transferFrom(address(this), msg.sender, idToMarketItem[itemId].tokenId);\r\n      \r\n  }\r\n\r\n  //returns royalty for a specific item\r\n  function royaltyForItem(uint256 item) external view  returns(uint256){\r\n     require(item <= _itemIds.current(), \" Enter a valid Id\");\r\n      return(idToMarketItem[item].royalty);\r\n  }\r\n\r\n  /* Returns all unsold market items */\r\n  function fetchMarketItems() public view returns (MarketItem[] memory) {\r\n    uint itemCount = _itemIds.current();\r\n    uint unsoldItemCount = _itemIds.current().sub(_itemsinActive.current());\r\n    uint currentIndex = 0;\r\n\r\n    MarketItem[] memory items = new MarketItem[](unsoldItemCount);\r\n    for (uint i = 0; i < itemCount; i++) {\r\n      if ( idToMarketItem[i.add(1)].isActive ==true )\r\n      {\r\n        uint currentId = i.add(1);\r\n        MarketItem storage currentItem = idToMarketItem[currentId];\r\n        items[currentIndex] = currentItem;\r\n        currentIndex = currentIndex.add(1);\r\n      }\r\n    }\r\n    return items;\r\n  }\r\n\r\n  /* Returns  items that a user has purchased */\r\n  function fetchMyNFTs() public view returns (MarketItem[] memory) {\r\n    uint totalItemCount = _itemIds.current();\r\n    uint itemCount = 0;\r\n    uint currentIndex = 0;\r\n\r\n    for (uint i = 0; i < totalItemCount; i++) {\r\n      if (idToMarketItem[i.add(1)].owner == msg.sender) {\r\n        itemCount = itemCount.add(1) ;\r\n      }\r\n    }\r\n\r\n    MarketItem[] memory items = new MarketItem[](itemCount);\r\n    for (uint i = 0; i < totalItemCount; i++) {\r\n      if (idToMarketItem[i.add(1)].owner == msg.sender) {\r\n        uint currentId = i.add(1);\r\n        MarketItem storage currentItem = idToMarketItem[currentId];\r\n        items[currentIndex] = currentItem;\r\n        currentIndex = currentIndex.add(1);\r\n      }\r\n    }\r\n    return items;\r\n  }\r\n    \r\n\r\n  /* Returns only items a user has created */\r\n  function fetchItemsCreated() public view returns (MarketItem[] memory) {\r\n    uint totalItemCount = _itemIds.current();\r\n    uint itemCount = 0;\r\n    uint currentIndex = 0;\r\n\r\n    for (uint i = 0; i < totalItemCount; i++) {\r\n      if (idToMarketItem[i.add(1)].seller == msg.sender) {\r\n        itemCount = itemCount.add(1);\r\n      }\r\n    }\r\n    MarketItem[] memory items = new MarketItem[](itemCount);\r\n    for (uint i = 0; i < totalItemCount; i++) {\r\n      if (idToMarketItem[i.add(1)].seller == msg.sender) {\r\n        uint currentId = i.add(1);\r\n        MarketItem storage currentItem = idToMarketItem[currentId];\r\n        items[currentIndex] = currentItem;\r\n        currentIndex = currentIndex.add(1) ;\r\n      }\r\n    }\r\n    return items;\r\n  }\r\n\r\n   receive() external payable {}\r\n    fallback() external payable {}\r\n}\r\n",
  "sourcePath": "C:\\Users\\sj931\\OneDrive\\Desktop\\PangeaCodeFiles\\TruffleContracts\\contracts\\MarketPlace.sol",
  "compiler": {
    "name": "solc",
    "version": "0.8.9+commit.e5eed63a.Emscripten.clang"
  },
  "schemaVersion": "3.4.3",
  "updatedAt": "2021-12-28T15:11:08.275Z",
  "networkType": "ethereum",
  "devdoc": {
    "kind": "dev",
    "methods": {
      "owner()": {
        "details": "Returns the address of the current owner."
      },
      "renounceOwnership()": {
        "details": "Leaves the contract without owner. It will not be possible to call `onlyOwner` functions anymore. Can only be called by the current owner. NOTE: Renouncing ownership will leave the contract without an owner, thereby removing any functionality that is only available to the owner."
      },
      "transferOwnership(address)": {
        "details": "Transfers ownership of the contract to a new account (`newOwner`). Can only be called by the current owner."
      }
    },
    "version": 1
  },
  "userdoc": {
    "kind": "user",
    "methods": {},
    "version": 1
  }
}